:100000000C9446000C9465000C9465000C946500FB
:100010000C9465000C9465000C9465000C946500CC
:100020000C9465000C9465000C9465000C946500BC
:100030000C9465000C9419020C9465000C946500F6
:100040000C9465000C9465000C9465000C9465009C
:100050000C9465000C9465000C9465000C9465008C
:100060000C9465000C9465000C9465000C9465007C
:100070000C9465000C9465000C9465000C9465006C
:100080000C9465000C9465000C94650011241FBE4F
:10009000CFEFD0E4DEBFCDBF11E0A0E0B1E0ECE6F1
:1000A000FEE000E00BBF02C007900D92A033B10745
:1000B000D9F721E0A0E3B1E001C01D92AA37B20751
:1000C000E1F70E94B5050C9434070C940000CF931F
:1000D000DF93CDB7DEB781E00E948E000000DF9194
:1000E000CF910895CF93DF93CDB7DEB784E690E04C
:1000F0000E94320188E30E948E0086E00E948E00FA
:100100008FE00E948E0081E00E948E008AE090E0E5
:100110000E9432010000DF91CF910895CF93DF93C9
:100120001F92CDB7DEB789838BE290E02BE230E0FF
:10013000F90120812F7BFC01208388E290E0298156
:10014000FC0120838BE290E02BE230E0F90120817A
:100150002068FC01208300008BE290E02BE230E07D
:10016000F90120812F77FC01208382E090E00E943A
:10017000320100000F90DF91CF910895CF93DF936C
:100180001F92CDB7DEB789838BE290E02BE230E09F
:10019000F90120812064FC01208388E290E029811C
:1001A000FC0120838BE290E02BE230E0F90120811A
:1001B0002068FC01208300008BE290E02BE230E01D
:1001C000F90120812F77FC01208381E090E00E94DB
:1001D000320100000F90DF91CF910895CF93DF930C
:1001E00000D000D0CDB7DEB78A837C836B830E94BA
:1001F00067008A81898311C0898191E0980F998372
:100200000E941B018B819C819C012F5F3F4F3C838F
:100210002B83FC0180810E94BE008B819C81FC01AC
:100220008081882349F700000F900F900F900F9066
:10023000DF91CF910895CF93DF931F92CDB7DEB7B3
:1002400089838981813128F4898181580E948E00B7
:1002500004C0898181550E948E0000000F90DF91BB
:10026000CF910895CF93DF9300D000D000D0CDB7C9
:10027000DEB79E838D831A82198213C01C821B8273
:1002800006C000008B819C8101969C838B838B81AF
:100290009C8187309340ACF389819A8101969A833F
:1002A000898329813A818D819E812817390734F30A
:1002B000000026960FB6F894DEBF0FBECDBFDF91CB
:1002C000CF910895CF93DF93CDB7DEB78AE790E063
:1002D00027E8FC0120838CE790E020E4FC012083E8
:1002E0000000DF91CF910895CF93DF93CDB7DEB7B4
:1002F0008AE790E02AE730E0F90120812064FC01E0
:10030000208300008AE790E0FC018081882F90E044
:1003100080719927892BB1F38AE790E02AE730E0D2
:10032000F90120812061FC01208388E790E0FC0135
:1003300080819181DF91CF910895CF93DF9300D099
:1003400000D0CDB7DEB769837A838B839C838981A4
:100350009A81AB81BC818093000190930101A093AD
:100360000201B09303018091000190910101A091DD
:100370000201B09103018093310190933201A09367
:100380003301B093340100000F900F900F900F9045
:10039000DF91CF910895CF93DF93CDB7DEB781E89A
:1003A00090E02BE0FC01208388E890E02DE730E02E
:1003B000FC01318320838FE690E022E0FC01208362
:1003C00084E890E0FC0111821082809100019091FC
:1003D0000101A0910201B09103018093310190933A
:1003E0003201A0933301B09334018FE590E02FE503
:1003F00030E0F90120812068FC0120830000DF91BA
:10040000CF910895CF93DF93CDB7DEB781E890E029
:10041000FC0110820000DF91CF910895CF93DF930C
:10042000CDB7DEB781E0809330010000DF91CF913E
:1004300008951F920F9200905F000F921124009078
:100440005B000F922F933F934F935F936F937F9334
:100450008F939F93AF93BF93EF93FF93CF93DF93CC
:10046000CDB7DEB78091310190913201A091330177
:10047000B09134010197A109B109809331019093A2
:100480003201A0933301B0933401809131019091F6
:100490003201A0913301B0913401892B8A2B8B2B2F
:1004A00091F40E940E028091000190910101A091AF
:1004B0000201B09103018093310190933201A09326
:1004C0003301B09334010000DF91CF91FF91EF91A0
:1004D000BF91AF919F918F917F916F915F914F915C
:1004E0003F912F910F9000925B000F9000925F0060
:1004F0000F901F901895CF93DF9300D01F92CDB728
:10050000DEB789837B836A8389818A3031F48A816B
:100510009B81BC018DE00E947B0280EC90E0FC019D
:100520008081882F90E080729927892BB1F386EC27
:1005300090E02981FC01208380E090E00F900F90F3
:100540000F90DF91CF910895CF93DF93CDB7DEB7B2
:1005500084E290E024E230E0F90120812760FC0190
:1005600020830000DF91CF910895CF93DF93CDB723
:10057000DEB785E290E025E230E0F90120812260DB
:10058000FC01208385E290E025E230E0F901208142
:100590002D7FFC0120830000DF91CF910895CF9340
:1005A000DF93CDB7DEB785E290E025E230E0F901D8
:1005B00020812460FC01208385E290E025E230E088
:1005C000F90120812B7FFC0120830000DF91CF9176
:1005D0000895CF93DF9300D0CDB7DEB78A83198219
:1005E0001EC08A81882354F485E290E025E230E041
:1005F000F90120812160FC01208309C085E290E09F
:1006000025E230E0F90120812E7FFC0120830E9449
:10061000B5028A81880F8A8389818F5F8983898166
:100620008830F8F20E94CF0200000F900F90DF9107
:10063000CF910895CF93DF9300D0CDB7DEB79A83E3
:10064000898389819A818230910579F1833091057E
:100650002CF4009751F0019779F074C08330910524
:10066000D1F1049709F458C06DC01092350181E0B2
:1006700090E09A83898369C089E290E0FC018081DF
:10068000809580728093360180913601882341F0F5
:1006900082E090E09A83898381E08093350155C0A0
:1006A00081E090E09A83898350C089E290E0FC0168
:1006B00080818095807280933601809136018823F5
:1006C00029F082E090E09A8389833FC083E090E044
:1006D0009A8389833AC089E290E0FC018081809509
:1006E00080728093360180913501882329F481E05E
:1006F00090E09A83898329C080913601882339F05C
:1007000084E090E09A838983109235011EC083E0D3
:1007100090E09A83898319C089E290E0FC0180818E
:10072000809580728093360180913601882329F06C
:1007300084E090E09A83898308C081E090E09A8306
:10074000898303C01A821982000089819A810F90DF
:100750000F90DF91CF910895CF93DF9300D0CDB765
:10076000DEB79A83898389819A81892B19F41A8249
:10077000198203C01A821982000089819A81892B0B
:1007800009F030C080913501882321F483E0809303
:10079000720127C00E947401909338018093370141
:1007A0008091370190913801893E934054F08091B7
:1007B00072018530B0F4809172018F5F8093720175
:1007C00010C08091370190913801843F91404CF4E2
:1007D00080917201823028F0809172018150809363
:1007E0007201000089819A810F900F90DF91CF9163
:1007F0000895CF93DF9300D0CDB7DEB79A83898376
:1008000089819A81892B19F41A82198203C01A826C
:100810001982000089819A81892BB9F5809135016F
:10082000882351F410926C0110927401109273019C
:1008300080E88093750128C08091730190917401C4
:10084000892B39F481E090E09093740180937301D7
:100850001BC080917501882331F0809175018695C8
:100860008093750111C080E88093750180916C01BF
:10087000843030F480916C018F5F80936C0102C0F2
:1008800010926C0110926D01000089819A810F9085
:100890000F90DF91CF910895CF93DF9300D0CDB724
:1008A000DEB79A83898389819A81009719F001972D
:1008B00031F00AC081E090E09A83898308C081E02A
:1008C00090E09A83898303C01A821982000089818B
:1008D0009A81019709F042C180913501882309F07E
:1008E00044C01092390183E080933A0182E290E0A3
:1008F00022E230E0F9012081217FFC01208382E2A5
:1009000090E022E230E0F9012081FC012083109286
:100910006D010E9467008BE290E02BE230E0F9016C
:1009200020812072FC01208310923B0116C080912F
:100930003B018F5F0E941B0180913B01882F90E05B
:10094000845E9E4FFC018081882F90E00E94BE0053
:1009500080913B018F5F80933B0180913B018C3004
:1009600030F380E00E94E902F8C00E94670081E055
:100970000E941B0110923B0111C080913B01882F06
:1009800090E0885D9E4FFC018081882F90E00E945E
:10099000BE0080913B018F5F80933B0180913B01C2
:1009A000873058F3809175010E94E90285E290E05A
:1009B00020916C01222F30E0295E3E4FF901208109
:1009C000FC0120838BE290E02BE230E0F9012081F2
:1009D0002072FC0120838BE290E02BE230E0F901F1
:1009E0002081622F20917201222F30E0A901415015
:1009F000510921E030E002C0220F331F4A95E2F78F
:100A0000262BFC01208388E00E941B018091750148
:100A10008130B1F580916D01882391F580916C0151
:100A2000882F90E0895E9E4FFC018081882F90E0A6
:100A3000887F99279C012095309580917201882F9D
:100A400090E0AC014150510980E890E002C09595DA
:100A500087954A95E2F782239323892B49F0809169
:100A600039018F5F8093390181E080936D0108C067
:100A700080913A01815080933A0181E080936D0129
:100A8000809139018A3040F480913901882F90E0BB
:100A9000C0960E94BE0024C0909139018DEC989FB1
:100AA000812D1124869586958695882F90E0C09695
:100AB0000E94BE00909139018DEC989F812D1124E8
:100AC000869586958695880F282F220F220F820FF4
:100AD000F92FF81B8F2F882F90E0C0960E94BE0040
:100AE00082E290E022E230E0F9012081217FFC01E6
:100AF000208380913A01882331F180913A0183303B
:100B000051F482E290E022E230E0F90120812E608F
:100B1000FC01208322C080913A01823051F482E2AC
:100B200090E022E230E0F90120812660FC01208380
:100B300014C082E290E022E230E0F90120812260DC
:100B4000FC0120830AC082E290E022E230E0F90159
:100B50002081FC01208310923501000089819A8157
:100B60000F900F90DF91CF9108950F931F93CF9324
:100B7000DF931F92CDB7DEB781E290E02EE0FC015B
:100B8000208382E290E021EFFC01208384E290E068
:100B90002FEFFC01208385E290E0FC01108287E2C8
:100BA00090E02FEFFC01208388E290E0FC011082AE
:100BB0008AE290E02FEDFC0120838BE290E020E2BE
:100BC000FC0120830E9472000E9462010E94A40224
:100BD0008091130190911401A0911501B09116011B
:100BE000BC01CD010E949D010E94CB0110923D01EC
:100BF00010923C018091130190911401A091150174
:100C0000B091160180933E0190933F01A093400163
:100C1000B09341011092420110924301109244019D
:100C2000109245018AE193E0909347018093460139
:100C30001092490110924801809113019091140182
:100C4000A0911501B091160180934A0190934B0138
:100C5000A0934C01B0934D0110924E0110924F01A0
:100C600010925001109251018CEA93E0909353013D
:100C700080935201109255011092540188EC90E03B
:100C8000A0E0B0E08093560190935701A0935801E3
:100C9000B093590110925A0110925B0110925C01BD
:100CA00010925D0189EF93E090935F0180935E0164
:100CB00010926101109260018091130190911401D2
:100CC000A0911501B0911601809362019093630188
:100CD000A0936401B09365011092660110926701C0
:100CE00010926801109269018CE494E090936B017A
:100CF00080936A011982AAC08981282F30E0C90136
:100D0000880F991F820F931F880F991F880F991FB3
:100D10008E5B9E4FFC01208131814281538189810C
:100D2000682F70E0CB01880F991F860F971F880FDF
:100D3000991F880F991F825C9E4FFC0180819181D1
:100D4000A281B381281739074A075B0708F449C015
:100D50008981082F10E08981282F30E0C901880F90
:100D6000991F820F931F880F991F880F991F8A5B05
:100D70009E4FFC01408151818981282F30E0C901BB
:100D8000880F991F820F931F880F991F880F991F33
:100D9000845C9E4FFC0180819181FA0109959C0140
:100DA000C801880F991F800F911F880F991F880F06
:100DB000991F845C9E4FFC01318320838981282FF9
:100DC00030E0C901880F991F820F931F880F991F68
:100DD000880F991F8E5B9E4FFC0110821182128238
:100DE00013828981682F70E08981282F30E0C90142
:100DF000880F991F820F931F880F991F880F991FC3
:100E00008E5B9E4FFC012081318142815381809114
:100E1000130190911401A0911501B0911601280FB2
:100E2000391F4A1F5B1FCB01880F991F860F971F21
:100E3000880F991F880F991F8E5B9E4FFC0120839E
:100E400031834283538389818F5F8983809112012B
:100E50009981981708F450CF0000809130018823C1
:0C0E6000E1F31092300146CFF894FFCF70
:100E6C000100000000000002000000007B020000F6
:100E7C0000000432000000B8E878D8F050726573B6
:100E8C00732053746172742153636F72653A20003E
:00000001FF
