:100000000C9446000C9465000C9465000C946500FB
:100010000C9465000C9465000C9465000C946500CC
:100020000C9465000C9465000C9465000C946500BC
:100030000C9465000C9419020C9465000C946500F6
:100040000C9465000C9465000C9465000C9465009C
:100050000C9465000C9465000C9465000C9465008C
:100060000C9465000C9465000C9465000C9465007C
:100070000C9465000C9465000C9465000C9465006C
:100080000C9465000C9465000C94650011241FBE4F
:10009000CFEFD0E4DEBFCDBF11E0A0E0B1E0E8E3F8
:1000A000FAE000E00BBF02C007900D92A034B10748
:1000B000D9F721E0A0E4B1E001C01D92A636B20755
:1000C000E1F70E94DE030C941A050C940000CF9314
:1000D000DF93CDB7DEB781E00E948E000000DF9194
:1000E000CF910895CF93DF93CDB7DEB784E690E04C
:1000F0000E94320188E30E948E0086E00E948E00FA
:100100008FE00E948E0081E00E948E008AE090E0E5
:100110000E9432010000DF91CF910895CF93DF93C9
:100120001F92CDB7DEB789838BE290E02BE230E0FF
:10013000F90120812F7BFC01208388E290E0298156
:10014000FC0120838BE290E02BE230E0F90120817A
:100150002068FC01208300008BE290E02BE230E07D
:10016000F90120812F77FC01208382E090E00E943A
:10017000320100000F90DF91CF910895CF93DF936C
:100180001F92CDB7DEB789838BE290E02BE230E09F
:10019000F90120812064FC01208388E290E029811C
:1001A000FC0120838BE290E02BE230E0F90120811A
:1001B0002068FC01208300008BE290E02BE230E01D
:1001C000F90120812F77FC01208381E090E00E94DB
:1001D000320100000F90DF91CF910895CF93DF930C
:1001E00000D000D0CDB7DEB78A837C836B830E94BA
:1001F00067008A81898311C0898191E0980F998372
:100200000E941B018B819C819C012F5F3F4F3C838F
:100210002B83FC0180810E94BE008B819C81FC01AC
:100220008081882349F700000F900F900F900F9066
:10023000DF91CF910895CF93DF931F92CDB7DEB7B3
:1002400089838981813128F4898181580E948E00B7
:1002500004C0898181550E948E0000000F90DF91BB
:10026000CF910895CF93DF9300D000D000D0CDB7C9
:10027000DEB79E838D831A82198213C01C821B8273
:1002800006C000008B819C8101969C838B838B81AF
:100290009C8187309340ACF389819A8101969A833F
:1002A000898329813A818D819E812817390734F30A
:1002B000000026960FB6F894DEBF0FBECDBFDF91CB
:1002C000CF910895CF93DF93CDB7DEB78AE790E063
:1002D00027E8FC0120838CE790E020E4FC012083E8
:1002E0000000DF91CF910895CF93DF93CDB7DEB7B4
:1002F0008AE790E02AE730E0F90120812064FC01E0
:10030000208300008AE790E0FC018081882F90E044
:1003100080719927892BB1F38AE790E02AE730E0D2
:10032000F90120812061FC01208388E790E0FC0135
:1003300080819181DF91CF910895CF93DF9300D099
:1003400000D0CDB7DEB769837A838B839C838981A4
:100350009A81AB81BC818093000190930101A093AD
:100360000201B09303018091000190910101A091DD
:100370000201B09103018093410190934201A09347
:100380004301B093440100000F900F900F900F9025
:10039000DF91CF910895CF93DF93CDB7DEB781E89A
:1003A00090E02BE0FC01208388E890E02DE730E02E
:1003B000FC01318320838FE690E022E0FC01208362
:1003C00084E890E0FC0111821082809100019091FC
:1003D0000101A0910201B09103018093410190932A
:1003E0004201A0934301B09344018FE590E02FE5D3
:1003F00030E0F90120812068FC0120830000DF91BA
:10040000CF910895CF93DF93CDB7DEB781E890E029
:10041000FC0110820000DF91CF910895CF93DF930C
:10042000CDB7DEB781E0809340010000DF91CF912E
:1004300008951F920F9200905F000F921124009078
:100440005B000F922F933F934F935F936F937F9334
:100450008F939F93AF93BF93EF93FF93CF93DF93CC
:10046000CDB7DEB78091410190914201A091430147
:10047000B09144010197A109B10980934101909382
:100480004201A0934301B0934401809141019091B6
:100490004201A0914301B0914401892B8A2B8B2BFF
:1004A00091F40E940E028091000190910101A091AF
:1004B0000201B09103018093410190934201A09306
:1004C0004301B09344010000DF91CF91FF91EF9180
:1004D000BF91AF919F918F917F916F915F914F915C
:1004E0003F912F910F9000925B000F9000925F0060
:1004F0000F901F901895CF93DF9300D01F92CDB728
:10050000DEB789837B836A8389818A3031F48A816B
:100510009B81BC018DE00E947B0280EC90E0FC019D
:100520008081882F90E080729927892BB1F386EC27
:1005300090E02981FC01208380E090E00F900F90F3
:100540000F90DF91CF910895CF93DF9300D0CDB777
:10055000DEB79A83898389819A818230910579F106
:10056000833091052CF4009751F0019779F06BC01E
:1005700083309105D1F1049709F44FC064C0109203
:10058000450181E090E09A83898360C089E290E030
:10059000FC018081809580728093460180914601A4
:1005A000882341F082E090E09A83898381E0809300
:1005B00045014CC081E090E09A83898347C089E27D
:1005C00090E0FC018081809580728093460180914B
:1005D0004601882329F082E090E09A83898336C01F
:1005E00083E090E09A83898331C089E290E0FC0146
:1005F0008081809580728093460180914601882396
:1006000039F084E090E09A838983109245011EC0FE
:1006100083E090E09A83898319C089E290E0FC012D
:100620008081809580728093460180914601882365
:1006300029F084E090E09A83898308C081E090E00B
:100640009A83898303C01A821982000089819A8162
:100650000F900F90DF91CF910895CF93DF9300D04B
:10066000CDB7DEB79A83898389819A81009719F083
:10067000019731F00AC081E090E09A83898308C035
:1006800081E090E09A83898303C01A821982000076
:1006900089819A81019709F08AC080914501882358
:1006A00021F50E9467001092470116C08091470112
:1006B0008F5F0E941B0180914701882F90E0895E27
:1006C0009E4FFC018081882F90E00E94BE008091A7
:1006D00047018F5F80934701809147018C3030F351
:1006E00085E290E0FC01108261C00E9467001092D8
:1006F000470116C0809147018F5F0E941B018091C6
:100700004701882F90E08D5D9E4FFC018081882FEE
:1007100090E00E94BE00809147018F5F8093470167
:10072000809147018D3030F31092470116C08091BF
:1007300047018F5E0E941B0180914701882F90E046
:10074000805D9E4FFC018081882F90E00E94BE005A
:10075000809147018F5F80934701809147018031ED
:1007600030F30E9474019093490180934801809175
:10077000480190914901893E934034F085E290E030
:1007800021E0FC01208312C0809148019091490131
:10079000843F914034F485E290E020E8FC0120831E
:1007A00005C085E290E028E1FC01208300008981FA
:1007B0009A810F900F90DF91CF9108950F931F931F
:1007C000CF93DF931F92CDB7DEB781E290E0FC01BB
:1007D000108282E290E02FEFFC01208384E290E01F
:1007E0002FEFFC01208385E290E0FC01108287E27C
:1007F00090E02FEFFC01208388E290E0FC01108262
:100800008AE290E02FEDFC0120838BE290E020E271
:10081000FC0120830E9472000E94620180911301FA
:1008200090911401A0911501B0911601BC01CD0168
:100830000E949D010E94CB0110924B0110924A012F
:100840008091130190911401A0911501B0911601AE
:1008500080934C0190934D01A0934E01B0934F01B2
:1008600010925001109251011092520110925301B6
:1008700084EA92E0909355018093540110925701BD
:10088000109256018091130190911401A0911501CD
:10089000B09116018093580190935901A0935A0189
:1008A000B0935B0110925C0110925D0110925E01A9
:1008B00010925F018DE293E090936101809360015B
:1008C0001982AAC08981282F30E0C901880F991F99
:1008D000820F931F880F991F880F991F805B9E4F6F
:1008E000FC0120813181428153818981682F70E030
:1008F000CB01880F991F860F971F880F991F880FAC
:10090000991F845B9E4FFC0180819181A281B381FC
:10091000281739074A075B0708F449C08981082F5F
:1009200010E08981282F30E0C901880F991F820FBC
:10093000931F880F991F880F991F8C5A9E4FFC0197
:10094000408151818981282F30E0C901880F991F8A
:10095000820F931F880F991F880F991F865B9E4FE8
:10096000FC0180819181FA0109959C01C801880FE1
:10097000991F800F911F880F991F880F991F865B01
:100980009E4FFC01318320838981282F30E0C901EB
:10099000880F991F820F931F880F991F880F991F27
:1009A000805B9E4FFC01108211821282138289812A
:1009B000682F70E08981282F30E0C901880F991FC6
:1009C000820F931F880F991F880F991F805B9E4F7E
:1009D000FC012081318142815381809113019091EA
:1009E0001401A0911501B0911601280F391F4A1F5B
:1009F0005B1FCB01880F991F860F971F880F991FC8
:100A0000880F991F805B9E4FFC01208331834283B6
:100A1000538389818F5F898380911201998198170F
:100A200008F450CF0000809140018823E1F3109238
:080A3000400146CFF894FFCF0E
:100A38000100000000000002000000007B0200002E
:100A48000000023200000050726573732053746115
:100A58007274214A6F79737469636B207465737457
:100A6800696E2070726F67726573732E2E2E202048
:00000001FF
