:100000000C9446000C9465000C9465000C946500FB
:100010000C9465000C9465000C9465000C946500CC
:100020000C9465000C9465000C9465000C946500BC
:100030000C9465000C9419020C9465000C946500F6
:100040000C9465000C9465000C9465000C9465009C
:100050000C9465000C9465000C9465000C9465008C
:100060000C9465000C9465000C9465000C9465007C
:100070000C9465000C9465000C9465000C9465006C
:100080000C9465000C9465000C94650011241FBE4F
:10009000CFEFD0E4DEBFCDBF11E0A0E0B1E0ECE6F1
:1000A000F0E100E00BBF02C007900D92A834B10749
:1000B000D9F721E0A8E4B1E001C01D92A539B2074B
:1000C000E1F70E949A060C9434080C940000CF9338
:1000D000DF93CDB7DEB781E00E948E000000DF9194
:1000E000CF910895CF93DF93CDB7DEB784E690E04C
:1000F0000E94320188E30E948E0086E00E948E00FA
:100100008FE00E948E0081E00E948E008AE090E0E5
:100110000E9432010000DF91CF910895CF93DF93C9
:100120001F92CDB7DEB789838BE290E02BE230E0FF
:10013000F90120812F7BFC01208388E290E0298156
:10014000FC0120838BE290E02BE230E0F90120817A
:100150002068FC01208300008BE290E02BE230E07D
:10016000F90120812F77FC01208382E090E00E943A
:10017000320100000F90DF91CF910895CF93DF936C
:100180001F92CDB7DEB789838BE290E02BE230E09F
:10019000F90120812064FC01208388E290E029811C
:1001A000FC0120838BE290E02BE230E0F90120811A
:1001B0002068FC01208300008BE290E02BE230E01D
:1001C000F90120812F77FC01208381E090E00E94DB
:1001D000320100000F90DF91CF910895CF93DF930C
:1001E00000D000D0CDB7DEB78A837C836B830E94BA
:1001F00067008A81898311C0898191E0980F998372
:100200000E941B018B819C819C012F5F3F4F3C838F
:100210002B83FC0180810E94BE008B819C81FC01AC
:100220008081882349F700000F900F900F900F9066
:10023000DF91CF910895CF93DF931F92CDB7DEB7B3
:1002400089838981813128F4898181580E948E00B7
:1002500004C0898181550E948E0000000F90DF91BB
:10026000CF910895CF93DF9300D000D000D0CDB7C9
:10027000DEB79E838D831A82198213C01C821B8273
:1002800006C000008B819C8101969C838B838B81AF
:100290009C8187309340ACF389819A8101969A833F
:1002A000898329813A818D819E812817390734F30A
:1002B000000026960FB6F894DEBF0FBECDBFDF91CB
:1002C000CF910895CF93DF93CDB7DEB78AE790E063
:1002D00027E8FC0120838CE790E020E4FC012083E8
:1002E0000000DF91CF910895CF93DF93CDB7DEB7B4
:1002F0008AE790E02AE730E0F90120812064FC01E0
:10030000208300008AE790E0FC018081882F90E044
:1003100080719927892BB1F38AE790E02AE730E0D2
:10032000F90120812061FC01208388E790E0FC0135
:1003300080819181DF91CF910895CF93DF9300D099
:1003400000D0CDB7DEB769837A838B839C838981A4
:100350009A81AB81BC818093000190930101A093AD
:100360000201B09303018091000190910101A091DD
:100370000201B09103018093490190934A01A09337
:100380004B01B0934C0100000F900F900F900F9015
:10039000DF91CF910895CF93DF93CDB7DEB781E89A
:1003A00090E02BE0FC01208388E890E02DE730E02E
:1003B000FC01318320838FE690E022E0FC01208362
:1003C00084E890E0FC0111821082809100019091FC
:1003D0000101A0910201B091030180934901909322
:1003E0004A01A0934B01B0934C018FE590E02FE5BB
:1003F00030E0F90120812068FC0120830000DF91BA
:10040000CF910895CF93DF93CDB7DEB781E890E029
:10041000FC0110820000DF91CF910895CF93DF930C
:10042000CDB7DEB781E0809348010000DF91CF9126
:1004300008951F920F9200905F000F921124009078
:100440005B000F922F933F934F935F936F937F9334
:100450008F939F93AF93BF93EF93FF93CF93DF93CC
:10046000CDB7DEB78091490190914A01A0914B012F
:10047000B0914C010197A109B10980934901909372
:100480004A01A0934B01B0934C0180914901909196
:100490004A01A0914B01B0914C01892B8A2B8B2BE7
:1004A00091F40E940E028091000190910101A091AF
:1004B0000201B09103018093490190934A01A093F6
:1004C0004B01B0934C010000DF91CF91FF91EF9170
:1004D000BF91AF919F918F917F916F915F914F915C
:1004E0003F912F910F9000925B000F9000925F0060
:1004F0000F901F901895CF93DF9300D01F92CDB728
:10050000DEB789837B836A8389818A3031F48A816B
:100510009B81BC018DE00E947B0280EC90E0FC019D
:100520008081882F90E080729927892BB1F386EC27
:1005300090E02981FC01208380E090E00F900F90F3
:100540000F90DF91CF910895CF93DF93CDB7DEB7B2
:1005500084E290E024E230E0F90120812760FC0190
:1005600020830000DF91CF910895CF93DF93CDB723
:10057000DEB785E290E025E230E0F90120812260DB
:10058000FC01208385E290E025E230E0F901208142
:100590002D7FFC0120830000DF91CF910895CF9340
:1005A000DF93CDB7DEB785E290E025E230E0F901D8
:1005B00020812460FC01208385E290E025E230E088
:1005C000F90120812B7FFC0120830000DF91CF9176
:1005D0000895CF93DF9300D0CDB7DEB78A83198219
:1005E0001EC08A81882354F485E290E025E230E041
:1005F000F90120812160FC01208309C085E290E09F
:1006000025E230E0F90120812E7FFC0120830E9449
:10061000B5028A81880F8A8389818F5F8983898166
:100620008830F8F20E94CF0200000F900F90DF9107
:10063000CF910895CF93DF9300D000D0CDB7DEB730
:100640008A837C836B838A818830F0F48A81882F47
:1006500090E00896880F880F880F0E948E001982FC
:1006600010C08981882F90E02B813C81820F931FDD
:10067000FC018081882F90E00E94BE0089818F5FFD
:1006800089838981883068F300000F900F900F9064
:100690000F90DF91CF910895CF93DF9300D0CDB726
:1006A000DEB79A83898389819A818230910579F1B5
:1006B000833091052CF4009751F0019779F074C0C4
:1006C00083309105D1F1049709F458C06DC01092A0
:1006D0004D0181E090E09A83898369C089E290E0CE
:1006E000FC0180818095807280934E0180914E0143
:1006F000882341F082E090E09A83898381E08093AF
:100700004D0155C081E090E09A83898350C089E211
:1007100090E0FC0180818095807280934E018091F1
:100720004E01882329F082E090E09A8389833FC0BC
:1007300083E090E09A8389833AC089E290E0FC01EB
:1007400080818095807280934E0180914D01882335
:1007500029F481E090E09A83898329C080914E0139
:10076000882339F084E090E09A83898310924D01C8
:100770001EC083E090E09A83898319C089E290E0EB
:10078000FC0180818095807280934E0180914E01A2
:10079000882329F084E090E09A83898308C081E06F
:1007A00090E09A83898303C01A82198200008981AC
:1007B0009A810F900F90DF91CF910895CF93DF939F
:1007C00000D0CDB7DEB79A83898389819A81892B3E
:1007D00019F41A82198203C01A82198200008981D1
:1007E0009A81892B09F030C080914D01882321F432
:1007F00083E080938D0127C00E9474019093500183
:1008000080934F0180914F0190915001893E934018
:1008100054F080918D018530B0F480918D018F5F0F
:1008200080938D0110C080914F0190915001843FC1
:1008300091404CF480918D01823028F080918D019F
:10084000815080938D01000089819A810F900F90D3
:10085000DF91CF910895CF93DF9300D0CDB7DEB76E
:100860009A83898389819A81892B19F41A82198242
:1008700003C01A821982000089819A81892BB9F5F7
:1008800080914D01882351F41092870110928F01BD
:1008900010928E0180E88093900128C080918E0193
:1008A00090918F01892B39F481E090E090938F0132
:1008B00080938E011BC080919001882331F080913C
:1008C000900186958093900111C080E880939001FB
:1008D00080918701843030F4809187018F5F80930D
:1008E000870102C01092870110928801000089815F
:1008F0009A810F900F90DF91CF910895CF93DF935E
:1009000000D0CDB7DEB79A83898389819A81009719
:1009100019F0019799F017C085E090E00E941E0839
:10092000853638F080915101682F85E090E00E9473
:10093000260881E090E09A83898308C081E090E0F6
:100940009A83898303C01A821982000089819A815F
:10095000019709F0E8C180914D01882309F0D3C0C7
:100960001092520183E08093530182E290E022E2F0
:1009700030E0F9012081217FFC01208382E290E0B8
:1009800022E230E0F9012081FC01208310928801ED
:100990008BE290E02BE230E0F90120812072FC0133
:1009A000208380915401882309F0A9C00E94670028
:1009B00081E00E941B011092550111C080915501E8
:1009C000882F90E08C5D9E4FFC018081882F90E005
:1009D0000E94BE00809155018F5F809355018091E8
:1009E00055018C3058F3809156018A3040F4809143
:1009F0005601882F90E0C0960E94BE0024C09091BE
:100A000056018DEC989F812D1124869586958695AB
:100A1000882F90E0C0960E94BE00909156018DEC08
:100A2000989F812D1124869586958695880F282F6D
:100A3000220F220F820FF92FF81B8F2F882F90E0A3
:100A4000C0960E94BE0081E10E941B0180E090E000
:100A50000E94BE0085E090E00E941E088093510134
:100A60001092550111C080915501882F90E0805D52
:100A70009E4FFC018081882F90E00E94BE008091F3
:100A800055018F5F80935501809155018C3058F34B
:100A9000809151018A3040F480915101882F90E07B
:100AA000C0960E94BE0024C0909151018DEC989F89
:100AB000812D1124869586958695882F90E0C09685
:100AC0000E94BE00909151018DEC989F812D1124C0
:100AD000869586958695880F282F220F220F820FE4
:100AE000F92FF81B8F2F882F90E0C0960E94BE0030
:100AF00080E090E00E94BE0081E08093540180E09D
:100B00000E94E9020FC10E9467001092540181E027
:100B10000E941B0185E08093550111C08091550111
:100B2000882F90E08C5D9E4FFC018081882F90E0A3
:100B30000E94BE00809155018F5F80935501809186
:100B400055018C3058F3809190010E94E90285E2B2
:100B500090E020918701222F30E0215E3E4FF90185
:100B60002081FC0120838BE290E02BE230E0F90150
:100B700020812072FC0120838BE290E02BE230E0A8
:100B8000F9012081622F20918D01222F30E0A901EF
:100B90004150510921E030E002C0220F331F4A9535
:100BA000E2F7262BFC01208388E00E941B01809144
:100BB00090018130B1F580918801882391F5809171
:100BC0008701882F90E0815E9E4FFC018081882FF5
:100BD00090E0887F99279C012095309580918D0128
:100BE000882F90E0AC014150510980E890E002C0AC
:100BF000959587954A95E2F782239323892B49F0AF
:100C0000809152018F5F8093520181E0809388012F
:100C100008C08091530181508093530181E08093FB
:100C20008801809152018A3040F480915201882FCE
:100C300090E0C0960E94BE0024C0909152018DECBD
:100C4000989F812D1124869586958695882F90E012
:100C5000C0960E94BE00909152018DEC989F812D0C
:100C60001124869586958695880F282F220F220FAE
:100C7000820FF92FF81B8F2F882F90E0C0960E94CB
:100C8000BE0082E290E022E230E0F9012081217F83
:100C9000FC01208380915301882331F1809153011D
:100CA000833051F482E290E022E230E0F9012081C9
:100CB0002E60FC01208322C080915301823051F4C8
:100CC00082E290E022E230E0F90120812660FC011E
:100CD000208314C082E290E022E230E0F90120811A
:100CE0002260FC0120830AC082E290E022E230E030
:100CF000F9012081FC01208310924D018091520165
:100D00008093560185E090E00E941E08982F809104
:100D10005601981738F480915601682F85E090E0CD
:100D20000E942608000089819A810F900F90DF9120
:100D3000CF9108950F931F93CF93DF931F92CDB759
:100D4000DEB781E290E02EE0FC01208382E290E0B9
:100D500021EFFC01208384E290E02FEFFC0120834F
:100D600085E290E0FC01108287E290E02FEFFC0129
:100D7000208388E290E0FC0110828AE290E02FED6F
:100D8000FC0120838BE290E020E2FC0120830E94A2
:100D900072000E9462010E94A40280911B01909146
:100DA0001C01A0911D01B0911E01BC01CD010E944A
:100DB0009D010E94CB0162E171E080E00E941A0374
:100DC000109258011092570180911B0190911C01C3
:100DD000A0911D01B0911E018093590190935A0179
:100DE000A0935B01B0935C0110925D0110925E01D3
:100DF00010925F01109260018CE493E09093620185
:100E000080936101109264011092630180911B0133
:100E100090911C01A0911D01B0911E01809365016C
:100E200090936601A0936701B093680110926901E5
:100E300010926A0110926B0110926C018EED93E09A
:100E400090936E0180936D011092700110926F016A
:100E500088EC90E0A0E0B0E0809371019093720183
:100E6000A0937301B09374011092750110927601F2
:100E700010927701109278018BE294E090937A01BE
:100E80008093790110927C0110927B0180911B016B
:100E900090911C01A0911D01B0911E0180937D01D4
:100EA00090937E01A0937F01B09380011092810105
:100EB0001092820110928301109284018EE794E0D7
:100EC00090938601809385011982AAC08981282F79
:100ED00030E0C901880F991F820F931F880F991F57
:100EE000880F991F835A9E4FFC01208131814281D6
:100EF00053818981682F70E0CB01880F991F860F7D
:100F0000971F880F991F880F991F875A9E4FFC01C2
:100F100080819181A281B381281739074A075B0735
:100F200008F449C08981082F10E08981282F30E01A
:100F3000C901880F991F820F931F880F991F880F6F
:100F4000991F8F599E4FFC01408151818981282F23
:100F500030E0C901880F991F820F931F880F991FD6
:100F6000880F991F895A9E4FFC0180819181FA0157
:100F700009959C01C801880F991F800F911F880F48
:100F8000991F880F991F895A9E4FFC013183208336
:100F90008981282F30E0C901880F991F820F931F84
:100FA000880F991F880F991F835A9E4FFC0110824A
:100FB0001182128213828981682F70E08981282F23
:100FC00030E0C901880F991F820F931F880F991F66
:100FD000880F991F835A9E4FFC01208131814281E5
:100FE000538180911B0190911C01A0911D01B09132
:100FF0001E01280F391F4A1F5B1FCB01880F991F45
:10100000860F971F880F991F880F991F835A9E4F2D
:10101000FC01208331834283538389818F5F8983DD
:1010200080911A019981981708F450CF000080919F
:1010300048018823E1F31092480146CFF999FECF89
:1010400092BD81BDF89A992780B50895262FF99908
:10105000FECF1FBA92BD81BD20BD0FB6F894FA9A9B
:0C106000F99A0FBE01960895F894FFCF96
:10106C000100000000000002000000007B020000F4
:10107C0000000004041F0E0E0A110432000000B818
:10108C00E878D8F04C6173742053636F72653A2022
:10109C00486967682053636F72653A2050726573B4
:0810AC0073205374617274217A
:00000001FF
